:020000040800F2
:1000000060850020DD010008E5010008E701000827
:10001000E9010008EB010008ED0100080000000004
:100020000000000000000000000000004501000882
:10003000F1010008000000008901000865080008BF
:10004000470A000871050008F9080008F7010008D0
:10005000290400087107000897030008AB03000893
:10006000AD030008AF030008B103000881030008D6
:10007000830300088503000887030008890300083C
:100080008B0300088D030008C7020008F701000871
:10009000F7010008F7010008F7010008B5030008A0
:1000A000FB08000801090008FF080008FD08000817
:1000B000F7010008F7010008F701000857050008DC
:1000C000550500085B05000859050008770700087A
:1000D00079070008F7010008F7010008F701000898
:1000E000A903000873070008450A00080909000869
:1000F0000D0900080B090008F7010008C9020008F3
:100100002B04000875070008030900087B07000896
:100110000F0900081109000805090008070900086F
:100120008F0300089103000893030008950300085B
:10013000DFF80CD000F096F800480047FD0F0008EB
:1001400060850020224B19680868B0E8F00F80F342
:100150000988BFF36F8F4FF0000080F311884EF0D5
:100160000D0E70470000000006480068006880F32C
:10017000088862B661B6BFF34F8FBFF36F8F00DFA1
:1001800000BF00BF08ED00E0EFF30980BFF36F8F01
:100190000F4B1A6820E9F00F106008B54FF01000FF
:1001A00080F31188BFF34F8FBFF36F8F01F0AAFB6D
:1001B0004FF0000080F31188BDE808401968086816
:1001C000B0E8F00F80F30988BFF36F8F704700BF6E
:1001D00014000020EFF305807047000006488047B8
:1001E00006480047FEE7FEE7FEE7FEE7FEE7FEE71C
:1001F000FEE7FEE7FEE7FEE7990800083101000888
:100200002DE9F05F0546002092469B46884606464B
:10021000814640241BE0284641464746224600F0DE
:1002200042F853465A46C01A914110D31146184617
:10023000224600F029F82D1A67EB01084F462246A6
:100240000120002100F020F817EB00094E41201E8C
:10025000A4F10104DFDC484631462A464346BDE8A6
:10026000F09F0000064C074D06E0E06840F00103F7
:1002700094E8070098471034AC42F6D3FFF75CFFD0
:10028000341D0008541D0008202A04DB203A00FA1F
:1002900002F1002070479140C2F1200320FA03F3DD
:1002A000194390407047202A04DB203A21FA02F0DB
:1002B0000021704721FA02F3D040C2F120029140A0
:1002C0000843194670477047704700001CB5144832
:1002D000042100234022CDE9001012A1154801F0AD
:1002E000D3FB1548032100234022CDE9001013A1C0
:1002F000164801F0C9FB1648022100234022CDE92F
:10030000001014A1174801F0BFFB1748012100237A
:100310004022CDE9001015A1184801F0B5FB1CBD25
:100320007C000020765461736B4C454431546F67F8
:10033000676C6500FD17000880000020765461732B
:100340006B4C454432546F67676C650019180008A0
:1003500084000020765461736B4C454433546F67BE
:10036000676C6500351800088800002076546173BA
:100370006B4C454434546F67676C65005118000836
:1003800070477047704770477047704770477047B5
:1003900070477047704710B5012000F031F810B178
:1003A000012000F027F810BD704770477047704774
:1003B0007047000010B5202000F022F890B12021F5
:1003C000094800F0BEF828B908480068401C0749F1
:1003D000086004E006480068401C054908602020C9
:1003E00000F008F810BD0000001801408C0000204B
:1003F000900000200149086070470000140401408B
:10040000014600200022074B1B6803EA0102054B4E
:1004100014331B680B4013B10AB1012000E0002027
:100420007047000000040140704770472DE9F0411B
:10043000024600250026002000230024002791F812
:1004400003C00CF00F0591F803C00CF0100CBCF1C8
:10045000000F03D091F802C04CEA050591F800C0E6
:10046000BCF1000F31D0146800202BE04FF0010CDC
:100470000CFA00F3B1F800C00CEA03069E4220D14A
:1004800083004FF00F0C0CFA03F7BC4305FA03FC92
:100490004CEA040491F803C0BCF1280F06D14FF0D8
:1004A000010C0CFA00FCC2F814C00AE091F803C079
:1004B000BCF1480F05D14FF0010C0CFA00FCC2F85A
:1004C00010C0401C0828D1D31460B1F800C0BCF1A2
:1004D000FF0F34DD546800202EE000F1080C4FF0CF
:1004E000010808FA0CF3B1F800C00CEA03069E42BA
:1004F00021D183004FF00F0C0CFA03F7BC4305FA2F
:1005000003FC4CEA040491F803C0BCF1280F05D1A8
:1005100000F1080C08FA0CF8C2F8148091F803C036
:10052000BCF1480F07D100F1080C4FF0010808FAA0
:100530000CF8C2F81080401C0828CED35460BDE8E7
:10054000F0810246002093680B400BB1012000E0CF
:100550000020704770477047704770470249014359
:10056000024A1160704700000000FA050CED00E03F
:100570007047000010B50CA000F066FA00230522B9
:10058000032119A000F060FA3022012122A000F01E
:100590005BFA0123002211462BA000F055FA02A0BD
:1005A00000F052FA10BD00002A2A2A2A2A2A2A2AF2
:1005B0002A2A2A2A2A2A2A2A2A2A2A2A2A2A2A2A9B
:1005C0002A2A2A2A2A2A2A2A2A2A2A2A2A2A2A2A8B
:1005D0002A2A2A2A2A2A2A2A2A2A2A2A2A2A2A2A7B
:1005E0002A2A2A2A2A0D0A00202020202020202022
:1005F00020202020202020205354444C69622020B9
:10060000202056657273696F6E203A2025642E256E
:10061000642E25640D0A00002020202020202020A8
:100620002020202020202020434D534953202020EB
:10063000202056657273696F6E203A2025582E254A
:100640003032580D0A0000002020202020202020D9
:1006500020202020202020204669726D776172655D
:10066000202056657273696F6E203A2025582E251A
:100670003032582E253032580D0A000029B1064A72
:1006800092690243044B9A6104E0034A92698243EF
:10069000014B9A61704700000010024030B5002104
:1006A0000022002400232D4D6D6805F00C0121B1BE
:1006B000042905D0082923D105E0294D056022E051
:1006C000274D05601FE0254D6D6805F47012234D20
:1006D0006D6805F48034022505EB92421CB9214D6A
:1006E000554305600BE01D4D6D6805F400351DB1E7
:1006F0001C4D5543056002E0194D5543056002E06D
:10070000174D056000BF00BF144D6D6805F0F00186
:100710000909154D6B5C0568DD4045600F4D6D683E
:1007200005F4E061090A104D6B5C4568DD408560A9
:100730000A4D6D6805F46051C90A0B4D6B5C456844
:10074000DD40C560054D6D6805F44041890B074DDE
:100750006B5CC568B5FBF3F5056130BD0010024068
:1007600000127A0000093D00000000201000002067
:1007700070477047704770477047704710B500F07A
:1007800001F810BD0CB500200190009033480068BE
:1007900040F480303149086000BF3048006800F400
:1007A000003000900198401C0190009818B9019801
:1007B000B0F5A06FF1D12948006800F4003010B105
:1007C0000120009001E0002000900098012843D112
:1007D0002348006840F0100021490860084600687E
:1007E00020F0030008600846006840F0020008603E
:1007F0001A484068194948600846406848600846F9
:10080000406840F4806048600846406820F47C10EE
:1008100048600846406840F4E810486008460068B0
:1008200040F08070086000BF0C48006800F0007065
:100830000028F9D00948406820F0030007494860C3
:100840000846406840F00200486000BF0348406826
:1008500000F00C000828F9D10CBD00000010024087
:100860000020024010B500BF102080F31188BFF3B4
:100870004F8FBFF36F8F00BF01F036F918B14FF003
:1008800080500449086000BF002080F3118800BF39
:1008900010BD000004ED00E010B51348006840F002
:1008A00001001149086008464068104908400E4997
:1008B0004860084600680E4908400B490860084631
:1008C000006820F4802008600846406820F4FE009C
:1008D00048604FF41F008860FFF750FF4FF0006042
:1008E0000449086010BD0000001002400000FFF83D
:1008F000FFFFF6FE08ED00E0704770477047704755
:10090000704770477047704770477047704770472F
:10091000704710B50022002340F66A14A14200D1AE
:1009200000BF0A1201249440A3B2DC43048010BD2E
:1009300021B1828942F40052828104E082894DF61D
:10094000FF731A408281704702460020B1F5007F94
:1009500000D100BF13880B400BB1012000E0002044
:10096000704700002DE9F04786B005460E4600248A
:10097000A24600BFA1460027B08900B100BF2F46A4
:100980002C8A4CF6FF700440F08804432C82AC891A
:100990004EF6F3100440B08831890843718908434A
:1009A0000443AC81AC8A4FF6FF400440B089044355
:1009B000AC8201A8FFF772FE1F48874202D1DDF822
:1009C00010A001E0DDF80CA0A88900F4004040B1BF
:1009D0000AEBCA0000EB0A1031684900B0FBF1F8DD
:1009E00007E00AEBCA0000EB0A1031688900B0FB8F
:1009F000F1F86420B8FBF0F004012009642101FB48
:100A00001089A88900F4004040B1322000EBC900F1
:100A1000B0FBF1F000F00700044308E0322000EBE7
:100A200009106421B0FBF1F000F00F0004432C81A9
:100A300006B0BDE8F087000000380140C1F30802AD
:100A400082807047704770470FB4054B10B503A9FB
:100A5000044A029800F018F810BC5DF814FB00007E
:100A6000D90F00089400002002E008C8121F08C136
:100A7000002AFAD170477047002001E001C1121F1F
:100A8000002AFBD1704700002DE9FF4F8DB00F46C3
:100A90000546002606E025280BD0DDE90F12904719
:100AA0006D1C761C28780028F5D111B03046BDE8C1
:100AB000F08F0024A246A1460122EC4900E0044345
:100AC00015F8013F203B02FA03F00842F7D12878DD
:100AD0002A2810D06FF02F022878A0F130010929C0
:100AE00014D80AEB8A0102EB410144F0020400EB46
:100AF000010A6D1CF0E701CF5FEA000A03D544F458
:100B00000054CAF1000A44F002046D1C28782E2813
:100B100017D115F8010F44F004042A280ED06FF005
:100B20002F022878A0F1300109290AD809EB8901A0
:100B300002EB410100EB01096D1CF2E757F8049B41
:100B40006D1C28786C280FD006DC4C2817D068283C
:100B50000DD06A2814D104E0742810D07A280FD15F
:100B60000DE044F400140AE044F4801401E044F47D
:100B700040146978814202D104F580146D1C6D1C0B
:100B80002A786E2A1FD00CDC632A31D004DC002ABC
:100B90008BD0582A11D1A3E0642A68D0692A0CD1DD
:100BA00065E0732A2ED004DC6F2A73D0702A04D13A
:100BB0009BE0752A6FD0782A6ED01046DDE90F12BF
:100BC0009047761C50E1C4F30250022806D0032857
:100BD00009D0042801CF09D0066045E101CFF11703
:100BE000C0E9006140E101CF06803DE106703BE1D4
:100BF00017F8040B8DF8000000208DF80100EB467B
:100C0000012003E057F804BB4FF0FF3061074FF0BD
:100C1000000102D40DE008F10101884649450FDAD0
:100C20008045F8DB1BF808100029F4D108E008F132
:100C3000010188468142FADB1BF808100029F6D131
:100C4000DDE90F23AAEB08008146214600F036F9C2
:100C5000304400EB080604E0DDE90F121BF8010B3D
:100C60009047B8F10108F7D221464846F7E00A213B
:100C7000C4F302534FF0000B0891022B04D001CFB4
:100C8000C117032B09D00AE0FF1D27F00707F7E87B
:100C9000020108E032E01FE020E000B2C117042B9F
:100CA00001D140B2C117031E71F1000307DA4FF002
:100CB000000CD0EB0C006CEB01012D2302E02305AE
:100CC00004D52B238DF82430012303E0E30701D062
:100CD0002023F7E7984658E00A2110E010210EE0A3
:100CE00010204FF0000B08900CE010214FF0000B8B
:100CF00044F004044FF00809089103E008214FF084
:100D0000000B0891C4F30253022B04D001CF002141
:100D1000032B06D006E0FF1D27F00707F7E80201C6
:100D200003E080B2042B00D1C0B24FF000082307CB
:100D30002BD5702A07D0DDF820C08CF0100C5CEAAF
:100D40000B0C05D00EE040238DF82430012308E081
:100D500050EA010306D030238DF824308DF8252089
:100D600002239846DDF820C08CF0080C5CEA0B0CDE
:100D70000BD150EA010301D1630706D530238DF86A
:100D800024304FF00108A9F10109582A04D038A2F3
:100D90000B9208AA0A920BE03AA2F9E75B46089A7E
:100DA000FFF72EFA0B9B9B5C0A9A521E0A92137055
:100DB00050EA0102F2D10A98ADEB000000F1200BDD
:100DC000600702D524F4803401E04FF00109D945D1
:100DD00002DDA9EB0B0000E0002000EB0B01414419
:100DE0000890AAEB010AE00306D4DDE90F232146AF
:100DF000504600F063F806444FF0000908E009A9E6
:100E000011F80900DDE90F12904709F10109761C7C
:100E1000C145F4DBE0030CD5DDE90F232146504644
:100E200000F04CF8064404E0DDE90F123020904752
:100E3000761C0899481E08900029F5DC08E00A98FD
:100E40000A990078491C0A91DDE90F129047761C37
:100E5000BBF10001ABF1010BF1DC21465046DDE9AD
:100E60000F2300F019F806446D1C1BE60928010049
:100E70003031323334353637383961626364656610
:100E800000000000303132333435363738394142D2
:100E900043444546000000002DE9F041044600258A
:100EA0001E461746880404D405E039462020B04782
:100EB0006D1C641EF9D52846BDE8F0812DE9F0418E
:100EC000044600251E469046C80301D5302700E0A1
:100ED0002027880404D505E041463846B0476D1CFC
:100EE000641EF9D52846BDE8F08110B54FF4407076
:100EF000FFF734FB00F04AF800F002F810BD0000E4
:100F000000B585B001210420FFF7B8FB012188035B
:100F1000FFF7B4FB4FF40070ADF8100018208DF807
:100F2000130003208DF8120004A91648FFF77EFA7B
:100F30004FF48060ADF8100004208DF8130004A970
:100F40001048FFF773FA4FF4E13000900020ADF83D
:100F50000400ADF80600ADF80800ADF80C000C2058
:100F6000ADF80A0069460848FFF7FCFC0121064875
:100F7000FFF7DEFC40F227710348FFF7CAFC05B01B
:100F800000BD0000000801400038014008B5012103
:100F90001820FFF773FB4FF44060ADF800001020FD
:100FA0008DF8030003208DF8020069460848FFF71A
:100FB0003DFA3020ADF8000010208DF8030003202A
:100FC0008DF8020069460348FFF730FA08BD0000BB
:100FD000000C01400010014070B504460D46A1B25E
:100FE0000548FFF72BFD00BF80210348FFF7ACFC4D
:100FF0000028F9D0204670BD00380140FFF775FF8A
:10100000FFF7B8FAFFF762F900F030FC00BFFEE727
:101010002DE9F04105460E461C4807681C4800684B
:10102000001D00F0CDFA50B91948006890F82C1056
:101030000120884017490968814316480160681CEF
:1010400038B936B112480168091D134800F0F6FAA4
:101050001AE07C190E4800684460BC4207D20C4874
:101060000168091D0D48006800F0CEFA0CE0084840
:101070000168091D0A48006800F0C6FA09480068BE
:10108000844201D207480460BDE8F08128000020B6
:10109000140000202C0000204C0100201C00002027
:1010A000180000204400002010B5044600F0D2FAD9
:1010B00023480068401C224908602248006840B963
:1010C000204804600846006801280DD100F01EF990
:1010D0000AE01D48006838B91A480068C06AE16A29
:1010E000884201D81748046018480068401C174916
:1010F000086094F82C1001208840154909680843BD
:1011000013490860E16A01EB8101124A02EB810098
:10111000211D00F093FA00F0C7FA0B48006868B18F
:1011200008480068C06AE16A884207D24FF08050E0
:1011300009490860BFF34F8FBFF36F8F10BD0000E8
:101140002400002014000020300000204000002077
:101150002C0000209800002004ED00E010B516E0FF
:1011600000F078FA0C48C068C468201D00F028FA26
:101170000A480068401E0949086009480068401E86
:101180000749086000F090FA204600F00BF8044888
:1011900000680028E4D110BD3801002024000020A0
:1011A0002000002010B50446206B00F09BFA20467A
:1011B00000F098FA10BD000030B54FF4884317488E
:1011C00000F007042CB1C01D20F00700134C041BD5
:1011D0001B1B0246124C22600024114D6C60D0187B
:1011E000083820F007000F4C206000240D4D2D68BA
:1011F0006C600C4D2D682C601146441A4C60094CF3
:1012000024680C60084D4C682C60084D4C682C60BC
:101210004FF00044064D2C6030BD000060010020FE
:101220005000002058000020600000205C000020DA
:101230006C00002000BFFFF791FF064800680128FE
:10124000F9D94FF0805004490860BFF34F8FBFF3C6
:101250006F8FF0E79800002004ED00E02DE9FF5FBC
:1012600081460E469246DDE90E7B109CAAF10100F4
:10127000216B01EB800828F0070808F0070008B987
:10128000012000E0002050B900BF102080F3118839
:10129000BFF34F8FBFF36F8F00BF00BFFEE786B174
:1012A000002507E0715D04F134004155705D00B91F
:1012B00002E06D1C102DF5D300BF00214320015525
:1012C00002E0002084F83400052F00D30427E762F1
:1012D000201D00F096F904F1180000F092F9246145
:1012E000C7F10500A06164620020606484F84800D2
:1012F00049464046039A00F051F92060BBF1000FC7
:1013000001D0CBF80040BDE8FF9F000010B50024DD
:1013100007E004EB84010F4A02EB810000F064F95E
:10132000641C052CF5D30C4800F05EF90B4800F066
:101330005BF90B4800F058F90A4800F055F90A48E3
:1013400000F052F904480949086004480849086057
:1013500010BD000098000020FC00002010010020BB
:1013600024010020380100204C010020180000203A
:101370001C00002010B50146164800E00068036814
:101380008B42FBD30246436813448B4204D143682B
:101390004C682344436001460A464B681344046882
:1013A000A34211D10C4C03682468A34208D04B68B7
:1013B0000468646823444B6003681B680B6005E0A5
:1013C000054B1B680B6001E003680B60884200D08E
:1013D000016010BD50000020580000200A49096833
:1013E000096809B9012100E0002121B14FF0FF3166
:1013F000064A116006E004490968C968C868034ADA
:10140000416811607047000018000020440000206F
:101410000E480068401C08B9012000E0002050B9C7
:1014200000BF102080F31188BFF34F8FBFF36F8F81
:1014300000BF00BFFEE700BF102080F31188BFF39C
:101440004F8FBFF36F8F00BF00BFFEE7700000201B
:101450002DE9F04104464FF0000800F04BFA4948EE
:10146000006808B9FFF7A8FE474800682040002838
:1014700070D1D4B1083404F00700B0B104F0070013
:10148000C0F10800044404F0070008B9012000E09E
:10149000002050B900BF102080F31188BFF34F8F98
:1014A000BFF36F8F00BF00BFFEE7002C52D037485C
:1014B000006884424ED8364E3046056801E02E461C
:1014C0002D686868A04202D228680028F7D12D480C
:1014D000006885423ED0306800F108082868306016
:1014E0006868001B102819D92F1907F0070008B9E0
:1014F000012000E0002050B900BF102080F31188C7
:10150000BFF34F8FBFF36F8F00BF00BFFEE7686868
:10151000001B78606C603846FFF72CFF1B49686839
:101520000968081A194908600846006819490968D5
:10153000884203D215480068164908601249686855
:101540000968084368600020286013480068401C50
:101550001149086000F06CFB08F0070008B9012091
:1015600000E0002050B900BF102080F31188BFF3C5
:101570004F8FBFF36F8F00BF00BFFEE74046BDE84F
:10158000F0810000580000206C0000205C0000206A
:10159000500000206000002064000020001F4FF079
:1015A00080730360001F21F001030360001F034BE1
:1015B00003601438026020387047000011140008DE
:1015C00001460A69D1E901309860D1E90103586008
:1015D0005068884201D18868506000200861106816
:1015E000401E10601068704700F1080141604FF024
:1015F000FF31816000F10801C160016100210160DB
:10160000704700210161704710B502460B685C1CF1
:101610000CB9106907E002F1080000E04068446876
:1016200024689C42FAD944684C604C68A160886088
:1016300041600A611468641C146010BD42684A600D
:1016400093688B60936859609160086103685B1CC4
:101650000360704700BF102080F31188BFF34F8FE5
:10166000BFF36F8F00BF0E480068401C0C49086034
:1016700008460068012812D10A480068C0B208B9BB
:10168000012000E0002050B900BF102080F3118835
:10169000BFF34F8FBFF36F8F00BF00BFFEE77047F0
:1016A0007000002004ED00E00D48006850B900BF54
:1016B000102080F31188BFF34F8FBFF36F8F00BFEF
:1016C00000BFFEE706480068401E0549086008465E
:1016D000006820B9002080F3118800BF00BF704768
:1016E0007000002070B506463546002E44D0083DF7
:1016F0002C46224960680968084008B1012000E0D2
:10170000002050B900BF102080F31188BFF34F8F25
:10171000BFF36F8F00BF00BFFEE7206808B901204C
:1017200000E0002050B900BF102080F31188BFF303
:101730004F8FBFF36F8F00BF00BFFEE70F49606898
:1017400009680840C0B12068B0B90C4960680968F0
:101750008843606000F0CEF8094960680968084471
:10176000074908602046FFF705FE06480068401C50
:101770000449086000F05CFA70BD00006C000020B5
:101780005C0000206800002000204FF0E02108618C
:101790008861024848610720086170473F190100CD
:1017A00070B504460025D4B11248006808B901207C
:1017B00000E0002050B900BF102080F31188BFF373
:1017C0004F8FBFF36F8F00BF00BFFEE700F092F8AE
:1017D00000212046FFF71CFC00F02AFA05463DB91F
:1017E0004FF0805004490860BFF34F8FBFF36F8FF5
:1017F00070BD00004C00002004ED00E008E005484A
:10180000006880F40060034908606420FFF7C8FFA7
:10181000F5E700000C0C014008E00548006880F482
:10182000806003490860C820FFF7BAFFF5E70000B1
:101830000C0C014009E00548C06880F02000034915
:10184000C8604FF4FA70FFF7ABFFF4E700100140F7
:1018500009E00548C06880F010000349C8604FF4F3
:101860007A70FFF79DFFF4E7001001401CB51A489D
:1018700000210B468022CDE9001018A1194800F084
:1018800003F90446012C15D100BF102080F3118804
:10189000BFF34F8FBFF36F8F00BF4FF0FF30124980
:1018A000086001201149086000201149086000F01B
:1018B0006FF810E0601C08B1012000E0002050B972
:1018C00000BF102080F31188BFF34F8FBFF36F8FDD
:1018D00000BF00BFFEE71CBD4800002049444C4546
:1018E00000000000351200084400002030000020F5
:1018F0002800002002480068401C01490860704729
:101900004C0000201D48006818B101201C490860E7
:1019100032E000201A4908601A480068B0FA80F0E6
:10192000C0F11F0101EB8100174A52F8200008B1F5
:10193000012000E0002050B900BF102080F3118882
:10194000BFF34F8FBFF36F8F00BF00BFFEE701EB08
:1019500081020D4B03EB820042685268426000F145
:1019600008024368934202D142685268426042686A
:10197000D268064B1A6000BF704700004C00002080
:10198000380000202C0000209800002014000020C7
:101990001CB53849084600780190FF200A461070AF
:1019A0000846007800909DF8000000F0F0009DF8D7
:1019B0000020904201D1012000E0002050B900BF7A
:1019C000102080F31188BFF34F8FBFF36F8F00BFDC
:1019D00000BFFEE79DF8000000F01000264A1070DE
:1019E0000720264A106009E024480068401E234A68
:1019F00010609DF800004006000E00909DF8000069
:101A000000F080008028EFD01C480068C0F107007B
:101A1000042801D1012000E0002050B900BF1020AF
:101A200080F31188BFF34F8FBFF36F8F00BF00BFEC
:101A3000FEE7124800680002104A10601046008855
:101A400000F4E06010600B4A019810700C480068C8
:101A500040F470000A4908600846006840F0704091
:101A60000860FFF791FE002006490860FEF77CFB46
:101A700000201CBD00E400E074000020780000207D
:101A800020ED00E0700000202DE9FF4F85B080467A
:101A900089461746DDE912ABB800FFF7D9FC0646C8
:101AA00056B14C20FFF7D4FC04460CB1266304E089
:101AB0003046FFF717FE00E000247CB10020CDE99E
:101AC00000ABCDE902403A4649464046089BFFF745
:101AD000C5FB2046FFF7E8FA012501E04FF0FF358E
:101AE000284609B0BDE8F08F2DE9F0414FF000081D
:101AF0004448006800287CD143480068451C42489F
:101B0000056015BB41480068006808B9012000E085
:101B1000002050B900BF102080F31188BFF34F8F11
:101B2000BFF36F8F00BF00BFFEE738480768384833
:101B30000068364908603648076036480068401C2F
:101B400034490860FFF74AFC00BF3348006885420B
:101B50003CD300BF2D480068006808B9012000E0B0
:101B6000002020B14FF0FF302B4908602DE02748BE
:101B70000068C068C4686668B54202D2264806603C
:101B800023E0201DFFF71CFDA06A18B104F1180026
:101B9000FFF716FD94F82C10012088401F490968B2
:101BA00008431E490860E16A01EB81011C4A02EB0F
:101BB0008100211DFFF742FD1A49E06A0968C96AE0
:101BC0008842C7D34FF00108C4E700BF154800683A
:101BD000C06A00EB8000124951F82000012801D9A9
:101BE0004FF001081048006808B14FF0010805E007
:101BF000FFE70E480068401C0C4908604046BDE8FD
:101C0000F08100004C000020280000201800002077
:101C10001C0000203C000020440000202C0000207C
:101C2000980000201400002038000020340000201C
:101C300070B5002400263648006850B900BF102057
:101C400080F31188BFF34F8FBFF36F8F00BF00BFCA
:101C5000FEE7FFF7FFFC2E480068401E2C49086095
:101C60000846006800284FD12A48006800284BD059
:101C700024E02948C068C46804F11800FFF7A0FCFC
:101C8000201DFFF79DFC94F82C100120884023496B
:101C90000968084321490860E16A01EB8101204A93
:101CA00002EB8100211DFFF7C9FC1E49E06A0968AB
:101CB000C96A884202D301201B490860164800689F
:101CC00008B9012000E000200028D2D00CB1FFF7B5
:101CD00085FB1648056865B100BFFFF705FF10B129
:101CE0000120114908606D1E002DF6D100200F491A
:101CF00008600D48006838B1012630070C490860BB
:101D0000BFF34F8FBFF36F8FFFF7CEFC304670BD30
:101D10004C00002024000020240100202C00002082
:101D2000980000201400002038000020340000201B
:101D300004ED00E0541D00080000002098000000A1
:101D4000680A0008EC1D000898000020C884000004
:101D5000780A0008000000000102030401020304E5
:101D60000607080902040608000000000000000041
:101D70000000000000000000000000000000000063
:101D80000000000000000000000000000000000053
:101D90000000000000000000000000000000000043
:101DA0000000000000000000000000000000000033
:101DB0000000000000000000000000000000000023
:101DC00000000000AAAAAAAA00000000000000006B
:101DD0000000000000000000000000000000000003
:0C1DE000000000000000000000000000F7
:0400000508000131BD
:00000001FF
